:03000000020120DA
:0C012000787FE4F6D8FD75810C02009396
:10002600636F6D6D616E643B00726F626F74206DFD
:100036006F646520667265653B0067696D62616C19
:100046002070757368206174746974756465206FB7
:100056006E3B0067616D655F6D7367206F6E3B0079
:100066006368617373697320776865656C2077319F
:1000760020333030207732202D3330302077332034
:0D0086002D333030207734203330303B00F4
:100093001200FF7BFF7A0079261200D9E59970FCE4
:1000A3007BFF7A00792F1200D9E59970FC7BFF7AE8
:1000B3000079401200D9E59970FC7BFF7A007959E9
:1000C3001200D9E59970FC7BFF7A0079661200D99A
:0600D300E59970FC80FEBF
:0300230002012CAB
:0C012C00309808C29885990B850B993219
:1000D9008B088A09890AAB08AA09A90A120003FF31
:1000E90060101201387401250AF50AE43509F50989
:0600F90080E4E4F5992209
:080138008F993099FDC2992254
:1000FF0075985075D7E875D6FF758E14438E01D25B
:04010F00ACD2AF229D
:0C0113007F1A7E3C7DE8DDFEDEFCDFFA9A
:01011F0022BD
:10000300BB010689828A83E0225002E722BBFE02FB
:09001300E32289828A83E493222E
:00000001FF
